:100000000C942A000C9465010C9447000C94470052
:100010000C9447000C9447000C9447000C94470044
:100020000C9447000C9492010C9447000C944700E8
:100030000C9447000C9447000C9447000C94470024
:100040000C9447000C9447000C9447000C94470014
:100050000C94470011241FBECFE5D8E0DEBFCDBF12
:1000600010E0A0E6B0E0E0EDFDE002C005900D92EA
:10007000A237B107D9F720E0A2E7B0E001C01D9296
:10008000A737B207E1F70E9493030C94E6060C949D
:100090000000813019F130F08230E1F1833009F451
:1000A00055C00895442319F0413069F008952AB3EA
:1000B00081E090E002C0880F991F6A95E2F7809571
:1000C00082238ABB08952AB381E090E002C0880FA2
:1000D000991F6A95E2F7822B8ABB0895442319F091
:1000E000413069F0089527B381E090E002C0880FA5
:1000F000991F6A95E2F78095822387BB089527B3FD
:1001000081E090E002C0880F991F6A95E2F7822B88
:1001100087BB0895442319F0413069F0089524B352
:1001200081E090E002C0880F991F6A95E2F7809500
:10013000822384BB089524B381E090E002C0880F3D
:10014000991F6A95E2F7822B84BB0895442319F026
:10015000413069F0089521B381E090E002C0880F3A
:10016000991F6A95E2F78095822381BB089521B398
:1001700081E090E002C0880F991F6A95E2F7822B18
:1001800081BB0895813019F130F08230E1F1833084
:1001900009F454C00895442371F0413009F068C057
:1001A0002BB381E090E002C0880F991F6A95E2F7B7
:1001B000822B8BBB08952BB381E090E002C0880FA7
:1001C000991F6A95E2F7809582238BBB089544239B
:1001D00071F0413009F04CC028B381E090E002C0DA
:1001E000880F991F6A95E2F7822B88BB089528B380
:1001F00081E090E002C0880F991F6A95E2F7809530
:10020000822388BB0895442369F0413089F525B3E2
:1002100081E090E002C0880F991F6A95E2F7822B77
:1002200085BB089525B381E090E002C0880F991F37
:100230006A95E2F78095822385BB0895442369F08F
:100240004130B1F422B381E090E002C0880F991FE1
:100250006A95E2F7822B82BB089522B381E090E099
:1002600002C0880F991F6A95E2F78095822382BBAE
:10027000089585B78E7F85BF85B78D7F85BF85B78C
:100280008B7F85BF85B7877F85BF85B7816085BF39
:1002900085B7846085BF84B78F7B84BF8BB780644C
:1002A0008BBF8BB78F778BBF8BB78F7D8BBF8AB799
:1002B00080628ABF8AB780648ABF8AB780688ABF33
:1002C00008958BB780648BBF08951F920F920FB66D
:1002D0000F9211242F933F934F935F936F937F93CC
:1002E0008F939F93AF93BF93EF93FF93E09172002F
:1002F000F0917300309709F00995FF91EF91BF914C
:10030000AF919F918F917F916F915F914F913F91AD
:100310002F910F900FBE0F901F9018958FB7806888
:100320008FBF08951F920F920FB60F9211248F93D3
:100330009F93809174009091750001969093750041
:10034000809374009F918F910F900FBE0F901F901C
:10035000189540E066E083E00E94490041E066E0D5
:1003600083E00E94C20041E060E080E00E9449001A
:100370000E9461010E9439010E948E0184E089BFC0
:100380001FBC089541E060E080E00E94C2002AE1C5
:100390002A95F1F700C040E060E080E00E94C200D2
:1003A0001DBC1CBC81E48EBD80E288BF84E088BF98
:1003B00008B605FEFDCF1DBC1CBC81E08EBD80E2F1
:1003C00088BF84E088BF109275001092740008B650
:1003D00005FEFDCF66B577B58091740090917500EC
:1003E0003FEF40E722E0315040402040E1F700C0BD
:1003F0000000681B790B072E000C880B990B0E94DC
:100400001A0629E23CE349EE53E40E94700520E01D
:1004100030E040E85FE30E9404050E94E205CB0162
:100420000895CF93C82F40E061E081E00E94C200B0
:1004300040E062E081E00E94C200C4FB442740F932
:1004400064E080E00E94C200C5FB442740F965E0FB
:1004500080E00E94C200C6FB442740F966E080E0CD
:100460000E94C2004C2F441F4427441F67E080E0D5
:100470000E94C20041E063E081E00E94C20089EF77
:1004800090E00197F1F700C0000040E063E081E0F8
:100490000E94C20080917600882359F14C2F417050
:1004A00064E080E00E94C200C1FB442740F965E09F
:1004B00080E00E94C200C2FB442740F966E080E071
:1004C0000E94C200C3FB442740F967E080E00E941D
:1004D000C20041E063E081E00E94C20089EF90E049
:1004E0000197F1F700C0000040E063E081E00E9466
:1004F000C20083EF91E00197F1F700C00000CF91B7
:10050000089541E064E080E00E94490041E065E038
:1005100080E00E94490041E066E080E00E944900DE
:1005200041E067E080E00E94490041E061E081E055
:100530000E94490041E062E081E00E94490041E000
:1005400063E081E00E9449008BE49DE10197F1F7AF
:1005500000C0000080E20E94110280E20E941102AD
:1005600080E80E94110289EF90E00197F1F700C046
:10057000000080E00E94110280EF0E94110289EFCA
:1005800090E00197F1F700C0000080E00E941102A6
:1005900080E00E94110283EF91E00197F1F700C023
:1005A000000081E0809376000895CF93C82F41E04A
:1005B00061E081E00E94C20040E062E081E00E94D0
:1005C000C200C4FB442740F964E080E00E94C200FE
:1005D000C5FB442740F965E080E00E94C200C6FBED
:1005E000442740F966E080E00E94C2004C2F441F7F
:1005F0004427441F67E080E00E94C20041E063E0BE
:1006000081E00E94C20089EF90E00197F1F700C0FD
:10061000000040E063E081E00E94C2004C2F417086
:1006200064E080E00E94C200C1FB442740F965E01D
:1006300080E00E94C200C2FB442740F966E080E0EF
:100640000E94C200C3FB442740F967E080E00E949B
:10065000C20041E063E081E00E94C20089EF90E0C7
:100660000197F1F700C0000040E063E081E00E94E4
:10067000C20083EF91E00197F1F700C00000CF9135
:100680000895823050F4603140F490E4899F600D09
:100690001124862F80680E9411020895CF92DF9264
:1006A000EF92FF920F931F93CF93DF936C01E62E8F
:1006B000042F642F8E2D0E94410380E1E89E70017B
:1006C0001124D0E0C0E010E017C02031310524F43F
:1006D0000E94D502CF5F10C02031310541F4D11105
:1006E00006C060E081E00E944103D1E005C0D13046
:1006F00019F40E94D502CF5FF601EC0FF11D808145
:10070000882341F098012C0F311D2E0D3F1D203202
:100710003105DCF2DF91CF911F910F91FF90EF90A7
:10072000DF90CF900895EF92FF920F931F93CF9396
:10073000DF93CDB7DEB72A970FB6F894DEBF0FBEB2
:10074000CDBF0E9481020E94AA040E9468040E94F8
:10075000890440E060E080E690E00E944E030E9441
:10076000A9010E94C2018C014AE050E0BE016F5F06
:100770007F4F0E94A60640E061E0CE0101960E94F4
:100780004E032FEF81EE94E0215080409040E1F73E
:1007900000C000000E9473040E94940401501109DB
:1007A00003311105F0F60E947E040E949F040E940E
:1007B000B5040E94C2018C014AE050E0BE016F5FA7
:1007C0007F4F0E94A60640E061E0CE0101960E94A4
:1007D0004E030E94CF040E94C2017C014AE050E017
:1007E000BE016F5F7F4F0E94A60640E061E0CE0130
:1007F00001960E944E030E94E9042FEF83ED90E3DF
:10080000215080409040E1F700C000000E94C201EA
:100810004AE050E0BE016F5F7F4F0E94A60640E0B5
:1008200061E0CE0101960E944E030E151F0500F1F6
:1008300004311105F0F10E9473040E94C201801777
:10084000910798F40E94C2017C014AE050E0BE0189
:100850006F5F7F4F0E94A60640E061E0CE010196E7
:100860000E944E03E016F10668F30E94940479CFCB
:1008700024E1E216F104E8F00E9494040E94C2010F
:100880008E159F0598F40E94C2018C014AE050E049
:10089000BE016F5F7F4F0E94A60640E061E0CE017F
:1008A00001960E944E030E151F0568F30E94730403
:1008B00058CF80E090E02A960FB6F894DEBF0FBEC6
:1008C000CDBFDF91CF911F910F91FF90EF900895D1
:1008D00041E060E083E00E94490041E061E083E0A4
:1008E0000E944900089540E060E083E00E944900D2
:1008F00041E061E083E00E944900089540E060E04B
:1009000083E00E94490040E061E083E00E944900EA
:10091000089541E062E083E00E94490041E063E025
:1009200083E00E944900089540E062E083E00E9475
:10093000490041E063E083E00E944900089540E0FF
:1009400062E083E00E94490040E063E083E00E94AF
:100950004900089541E060E082E00E94490040E0E3
:1009600060E082E00E94C200089541E060E082E021
:100970000E94C20083EC99E00197F1F700C00000EB
:1009800040E060E082E00E94C2009FEF21E18AE740
:10099000915020408040E1F700C00000089541E000
:1009A00060E082E00E94C2008BEA9DE00197F1F7CF
:1009B00000C0000040E060E082E00E94C2009FEFC3
:1009C00021E18AE7915020408040E1F700C000001B
:1009D000089541E060E082E00E94C2008BEB97E066
:1009E0000197F1F700C0000040E060E082E00E9463
:1009F000C2009FEF23ED80E3915020408040E1F75B
:100A000000C0000008955058BB27AA270E941B056C
:100A10000C946C060E945E0638F00E94650620F079
:100A200039F49F3F19F426F40C945B060EF4E0951C
:100A3000E7FB0C945506E92F0E947D0658F3BA1780
:100A4000620773078407950720F079F4A6F50C94E4
:100A50009F060EF4E0950B2EBA2FA02D0B01B901C5
:100A600090010C01CA01A0011124FF27591B99F024
:100A7000593F50F4503E68F11A16F040A22F232F30
:100A8000342F4427585FF3CF469537952795A79580
:100A9000F0405395C9F77EF41F16BA0B620B730B27
:100AA000840BBAF09150A1F0FF0FBB1F661F771F98
:100AB000881FC2F70EC0BA0F621F731F841F48F44D
:100AC000879577956795B795F7959E3F08F0B0CFD6
:100AD0009395880F08F09927EE0F979587950895BD
:100AE0000E9484050C946C060E94650658F00E94D2
:100AF0005E0640F029F45F3F29F00C945506511131
:100B00000C94A0060C945B060E947D0668F3992362
:100B1000B1F3552391F3951B550BBB27AA276217F9
:100B20007307840738F09F5F5F4F220F331F441F06
:100B3000AA1FA9F335D00E2E3AF0E0E832D091503A
:100B40005040E695001CCAF72BD0FE2F29D0660F27
:100B5000771F881FBB1F261737074807AB07B0E86A
:100B600009F0BB0B802DBF01FF2793585F4F3AF070
:100B70009E3F510578F00C9455060C94A0065F3FFB
:100B8000E4F3983ED4F3869577956795B795F795F6
:100B90009F5FC9F7880F911D9695879597F90895DE
:100BA000E1E0660F771F881FBB1F6217730784077A
:100BB000BA0720F0621B730B840BBA0BEE1F88F789
:100BC000E09508950E94E9056894B1110C94A0067F
:100BD00008950E94850688F09F5798F0B92F9927AD
:100BE000B751B0F0E1F0660F771F881F991F1AF018
:100BF000BA95C9F714C0B13091F00E949F06B1E0D8
:100C000008950C949F06672F782F8827B85F39F0D6
:100C1000B93FCCF3869577956795B395D9F73EF4B0
:100C200090958095709561957F4F8F4F9F4F089558
:100C3000E89409C097FB3EF4909580957095619576
:100C40007F4F8F4F9F4F9923A9F0F92F96E9BB272C
:100C50009395F695879577956795B795F111F8CFA8
:100C6000FAF4BB0F11F460FF1BC06F5F7F4F8F4F13
:100C70009F4F16C0882311F096E911C0772321F009
:100C80009EE8872F762F05C0662371F096E8862FA1
:100C900070E060E02AF09A95660F771F881FDAF7F8
:100CA000880F9695879597F9089597F99F6780E83B
:100CB00070E060E008959FEF80EC089500240A94AE
:100CC0001616170618060906089500240A94121627
:100CD0001306140605060895092E0394000C11F45A
:100CE000882352F0BB0F40F4BF2B11F460FF04C007
:100CF0006F5F7F4F8F4F9F4F089557FD9058440F60
:100D0000551F59F05F3F71F04795880F97FB991F6A
:100D100061F09F3F79F08795089512161306140627
:100D2000551FF2CF4695F1DF08C0161617061806B4
:100D3000991FF1CF86957105610508940895E8948F
:100D4000BB2766277727CB0197F9089545325105D0
:100D500020F4423010F00C94B106FB011082CB015C
:100D60000895BB274A3031F4992322F4BDE29095CF
:100D700081959F4F0C94BD06BB27FB015527AA27E1
:100D8000880F991FAA1FA41710F0A41B8395505118
:100D9000B9F7A05DAA3308F0A95DA193009779F790
:100DA000B111B1931192CB010C94D606DC01FC0178
:100DB000672F71917723E1F7329704C07C916D938F
:100DC00070836291AE17BF07C8F30895F894FFCF00
:100DD00044697374616E636520696E20636D203DA4
:020DE000000011
:00000001FF
